{
  "contractName": "SimpleStore",
  "abi": [
    {
      "anonymous": false,
      "inputs": [
        {
          "indexed": true,
          "name": "_value",
          "type": "uint256"
        },
        {
          "indexed": false,
          "name": "_sender",
          "type": "address"
        }
      ],
      "name": "NewValueSet",
      "type": "event",
      "signature": "0x7e0b7a35f017ec94e71d7012fe8fa8011f1dab6090674f92de08f8092ab30dda"
    },
    {
      "constant": false,
      "inputs": [
        {
          "name": "newValue",
          "type": "uint256"
        }
      ],
      "name": "set",
      "outputs": [],
      "payable": false,
      "stateMutability": "nonpayable",
      "type": "function",
      "signature": "0x60fe47b1"
    },
    {
      "constant": true,
      "inputs": [],
      "name": "get",
      "outputs": [
        {
          "name": "",
          "type": "uint256"
        }
      ],
      "payable": false,
      "stateMutability": "view",
      "type": "function",
      "signature": "0x6d4ce63c"
    }
  ],
  "bytecode": "0x608060405234801561001057600080fd5b5061015c806100206000396000f3fe60806040526004361061004c576000357c0100000000000000000000000000000000000000000000000000000000900463ffffffff16806360fe47b1146100515780636d4ce63c1461008c575b600080fd5b34801561005d57600080fd5b5061008a6004803603602081101561007457600080fd5b81019080803590602001909291905050506100b7565b005b34801561009857600080fd5b506100a1610127565b6040518082815260200191505060405180910390f35b806000819055506000547f7e0b7a35f017ec94e71d7012fe8fa8011f1dab6090674f92de08f8092ab30dda33604051808273ffffffffffffffffffffffffffffffffffffffff1673ffffffffffffffffffffffffffffffffffffffff16815260200191505060405180910390a250565b6000805490509056fea165627a7a723058205144c2d54bb89308fecb33003144e43dfa5645e56fdf1e265e5e16117ae9780f0029",
  "source": "pragma solidity ^0.5.0;\n\ncontract SimpleStore {\n  uint256 value;\n\n  event NewValueSet(uint256 indexed _value, address _sender);\n\n  function set(uint256 newValue) public {\n    value = newValue;\n    emit NewValueSet(value, msg.sender);\n  }\n\n  function get() public view returns (uint256) {\n    return value;\n  }\n}\n",
  "sourcePath": "/Users/dotrungkien/Desktop/eth-cocos-code-base/contract/contracts/SimpleStore.sol",
  "compiler": {
    "name": "solc",
    "version": "0.5.0+commit.1d4f565a.Emscripten.clang"
  },
  "schemaVersion": "3.0.2",
  "updatedAt": "2020-01-02T08:27:40.651Z",
  "devdoc": {
    "methods": {}
  },
  "userdoc": {
    "methods": {}
  }
}