{
  "_format": "hh-sol-artifact-1",
  "contractName": "SimpleStore",
  "sourceName": "contracts/SimpleStore.sol",
  "abi": [
    {
      "anonymous": false,
      "inputs": [
        {
          "indexed": true,
          "internalType": "uint256",
          "name": "_value",
          "type": "uint256"
        },
        {
          "indexed": false,
          "internalType": "address",
          "name": "_sender",
          "type": "address"
        }
      ],
      "name": "NewValueSet",
      "type": "event"
    },
    {
      "inputs": [],
      "name": "get",
      "outputs": [
        {
          "internalType": "uint256",
          "name": "",
          "type": "uint256"
        }
      ],
      "stateMutability": "view",
      "type": "function"
    },
    {
      "inputs": [
        {
          "internalType": "uint256",
          "name": "newValue",
          "type": "uint256"
        }
      ],
      "name": "set",
      "outputs": [],
      "stateMutability": "nonpayable",
      "type": "function"
    }
  ],
  "bytecode": "0x608060405234801561001057600080fd5b506101e6806100206000396000f3fe608060405234801561001057600080fd5b50600436106100365760003560e01c806360fe47b11461003b5780636d4ce63c14610057575b600080fd5b610055600480360381019061005091906100fd565b610075565b005b61005f6100b9565b60405161006c9190610139565b60405180910390f35b806000819055506000547f7e0b7a35f017ec94e71d7012fe8fa8011f1dab6090674f92de08f8092ab30dda336040516100ae9190610195565b60405180910390a250565b60008054905090565b600080fd5b6000819050919050565b6100da816100c7565b81146100e557600080fd5b50565b6000813590506100f7816100d1565b92915050565b600060208284031215610113576101126100c2565b5b6000610121848285016100e8565b91505092915050565b610133816100c7565b82525050565b600060208201905061014e600083018461012a565b92915050565b600073ffffffffffffffffffffffffffffffffffffffff82169050919050565b600061017f82610154565b9050919050565b61018f81610174565b82525050565b60006020820190506101aa6000830184610186565b9291505056fea2646970667358221220501b05bf984bf888b5809f7b35365ab19a512c0a0af6bf91efde7f44809081e764736f6c63430008090033",
  "linkReferences": {},
  "deployedLinkReferences": {}
}